:1001410041542B43574D4F44453D320041542B43BD
:10015100575341503D22776966695F7975616E2217
:100161002C22313233343536373839222C31312C87
:10017100340041542B4349504D55583D31004154B1
:100181002B4349505345525645523D312C35303061
:0E019100300041542B43495053544F3D300031
:03024600010800AC
:0701FD001201D27FD07E0742
:10020400D3EF9400EE940040147D6E7C00ED1D70DD
:0D021400011CED4C70F7EF1F70E61E80E33B
:0102210022BA
:07001C00AE071FEE70FA228F
:10022200758920759850758DFD858D8BE4F587D283
:06023200AFD2ACD28E2217
:0E023800C2ACC2998F993099FDC299D2AC2206
:1001D200120003FF60111202387F0512001C740125
:1001E20029F9E43AFA80E97F0512001C7F0D120218
:0B01F200387F0512001C7F0A02023853
:100026001202221202007BFF7A0179411201FD7A47
:1000360001794D1201FD7A0179731201FD7A017978
:100046007F1201FD7A0179931201D2D2AC75320189
:10005600753801753701753301D2A0D2A3D2A6E552
:100066000AB42BFBE50BB449F6E50CB450F1E513E5
:10007600B447ECE514B450E7E519B43004C2A080E7
:10008600DEE519B43104D2A080D5E519B43204C234
:10009600A380CCE519B43304D2A380C3E519B434E4
:0F00A60004C2A680BAE519643570B4D2A680B042
:0300230002019F38
:09019F00C0E0C0D075D000C00022
:1001A80030981EC298859909740A2508F8A609741A
:1001B8000A2508F8E6B40A057508008006050880CF
:0301C80002C299D7
:0701CB00D000D0D0D0E032DB
:030000000200B546
:0C00B500787FE4F6D8FD7581380200FC6D
:10000300BB010689828A83E0225002E722BBFE02FB
:09001300E32289828A83E493222E
:1000C100020026E493A3F8E493A34003F68001F22F
:1000D10008DFF48029E493A3F85407240CC8C33340
:1000E100C4540F4420C8834004F456800146F6DF0F
:1000F100E4800B0102040810204080900246E47E57
:10010100019360BCA3FF543F30E509541FFEE49303
:10011100A360010ECF54C025E060A840B8E493A3CA
:10012100FAE493A3F8E493A3C8C582C8CAC583CAF5
:10013100F0A3C8C582C8CAC583CADFE9DEE780BEAD
:0102490000B4
:00000001FF
